:100000000C943E000C9448000C9448000C9448005A
:100010000C9448000C9448000C9448000C94480040
:100020000C9448000C9448000C9448000C94480030
:100030000C9448000C9448000C9448000C94480020
:100040000C9448000C9448000C9448000C94480010
:100050000C9448000C9448000C9448000C94480000
:100060000C9448000C9448000C9448000C944800F0
:100070000C9448000C9448000C94480011241FBEB6
:10008000CFEFD0E1DEBFCDBF0E9489000C94AA0063
:100090000C9400001F93182F8A3019F48DE00E94F1
:1000A0004A008091C00085FFFCCF1093C600212F2D
:1000B000332727FD3095C9011F9108958091C00015
:1000C00087FFFCCF8091C60008951092C5008DE493
:1000D0008093C40088E18093C10086E08093C200D1
:1000E00008958FEF81B987B912B818B80895109A9A
:1000F0001198129A1398409A4198469A47980895F1
:1001000010981198129813984098419846984798DB
:1001100008958FEF81B987B912B818B81092C50049
:100120008DE48093C40088E18093C10086E08093D1
:10013000C200279A8091C00087FFFCCF8091C60043
:10014000853319F40E947700F5CF863399F70E9422
:080150008000F0CFF894FFCF0E
:00000001FF
