:100000000C943E000C9448000C9448000C9448005A
:100010000C9448000C9448000C9448000C94480040
:100020000C9448000C9448000C9448000C94480030
:100030000C9448000C9448000C9448000C94480020
:100040000C9448000C9448000C9448000C94480010
:100050000C9448000C9448000C9448000C94480000
:100060000C9448000C9448000C9448000C944800F0
:100070000C9448000C9448000C94480011241FBEB6
:10008000CFEFD0E1DEBFCDBF0E94A4000C94D4001E
:100090000C9400001F93182F8A3019F48DE00E94F1
:1000A0004A008091C00085FFFCCF1093C600212F2D
:1000B000332727FD3095C9011F9108958091C00015
:1000C00087FFFCCF8091C60008951092C5008DE493
:1000D0008093C40088E18093C10086E08093C200D1
:1000E00008958FEF81B987B912B818B80895109A9A
:1000F00011981298139A409A41984698479A0895F1
:100100001098119A129A13984098419A469A4798D3
:100110000895109A11981298139A4098419A469A05
:10012000479808951098119A129A1398409A4198F6
:100130004698479A089510981198129813984098E5
:1001400041984698479808958FEF81B987B912B8BA
:1001500018B81092C5008DE48093C40088E18093A4
:10016000C10086E08093C200279A8091C00087FF7B
:10017000FCCF8091C600803319F40E947700F5CF40
:10018000813319F40E948000F0CF823319F40E9469
:100190009B00EBCF833319F40E948900E6CF8433B0
:0C01A00021F70E949200E1CFF894FFCFFD
:00000001FF
