:100000000C943E000C9448000C9448000C9448005A
:100010000C9448000C9448000C9448000C94480040
:100020000C9448000C9448000C9448000C94480030
:100030000C9448000C9448000C9448000C94480020
:100040000C9448000C9448000C9448000C94480010
:100050000C9448000C9448000C9448000C94480000
:100060000C9448000C9448000C9448000C944800F0
:100070000C9448000C9448000C94480011241FBEB6
:10008000CFEFD0E1DEBFCDBF0E9471000C9489009C
:100090000C9400001F93182F8A3019F48DE00E94F1
:1000A0004A008091C00085FFFCCF1093C600212F2D
:1000B000332727FD3095C9011F9108958091C00015
:1000C00087FFFCCF8091C60008951092C5008DE493
:1000D0008093C40088E18093C10086E08093C200D1
:1000E00008951092C5008DE48093C40088E1809348
:1000F000C10086E08093C200279A8091C00087FFEC
:10010000FCCF8091C600863310F02F9AF6CF2F983F
:06011000F4CFF894FFCFCC
:00000001FF
