:100000000C943E000C945B000C945B000C945B0021
:100010000C945B000C945B000C945B000C945B00F4
:100020000C945B000C945B000C945B000C945B00E4
:100030000C945B000C945B000C945B000C945B00D4
:100040000C945B000C945B000C945B000C945B00C4
:100050000C945B000C945B000C945B000C945B00B4
:100060000C945B000C945B000C945B000C945B00A4
:100070000C945B000C945B000C945B0011241FBE7D
:10008000CFEFD0E1DEBFCDBF11E0A0E0B1E0EEE404
:10009000F1E002C005900D92AC31B107D9F711E043
:1000A000ACE1B1E001C01D92A232B107E1F70E94BC
:1000B00095000C94A5000C9400001F93182F8A3013
:1000C00019F48DE00E945D008091C00085FFFCCF97
:1000D0001093C600212F332727FD3095C9011F91AA
:1000E00008958091C00087FFFCCF8091C60090E00A
:1000F00008951092C5008DE48093C40088E1809338
:10010000C10086E08093C2008EE091E090931F01D1
:1001100080931E01909321018093200180E091E063
:1001200090931D0180931C0108950E947900279AE5
:100130008091C00087FFFCCF8091C60090E045977A
:0E01400014F02F9AF5CF2F98F3CFF894FFCF3D
:10014E00000000010000000000007100000000002F
:0C015E000002000000005D000000000036
:00000001FF
